{
  "contractName": "GameManager",
  "abi": [
    {
      "constant": false,
      "inputs": [
        {
          "name": "_owner",
          "type": "address"
        }
      ],
      "name": "setOwner",
      "outputs": [],
      "payable": false,
      "stateMutability": "nonpayable",
      "type": "function"
    },
    {
      "constant": true,
      "inputs": [],
      "name": "owner",
      "outputs": [
        {
          "name": "",
          "type": "address"
        }
      ],
      "payable": false,
      "stateMutability": "view",
      "type": "function"
    },
    {
      "constant": true,
      "inputs": [
        {
          "name": "",
          "type": "address"
        }
      ],
      "name": "teamsNames",
      "outputs": [
        {
          "name": "",
          "type": "string"
        }
      ],
      "payable": false,
      "stateMutability": "view",
      "type": "function"
    },
    {
      "inputs": [],
      "payable": false,
      "stateMutability": "nonpayable",
      "type": "constructor"
    },
    {
      "payable": true,
      "stateMutability": "payable",
      "type": "fallback"
    },
    {
      "anonymous": false,
      "inputs": [
        {
          "indexed": true,
          "name": "_contract",
          "type": "address"
        },
        {
          "indexed": true,
          "name": "_id",
          "type": "uint256"
        }
      ],
      "name": "MatchCreated",
      "type": "event"
    },
    {
      "anonymous": false,
      "inputs": [
        {
          "indexed": true,
          "name": "_address",
          "type": "address"
        },
        {
          "indexed": false,
          "name": "_name",
          "type": "string"
        }
      ],
      "name": "GameCreated",
      "type": "event"
    },
    {
      "anonymous": false,
      "inputs": [
        {
          "indexed": true,
          "name": "_match",
          "type": "address"
        }
      ],
      "name": "MatchFinished",
      "type": "event"
    },
    {
      "anonymous": false,
      "inputs": [
        {
          "indexed": false,
          "name": "balance",
          "type": "uint256"
        }
      ],
      "name": "BalanceWithDrawn",
      "type": "event"
    },
    {
      "anonymous": false,
      "inputs": [
        {
          "indexed": true,
          "name": "newOwner",
          "type": "address"
        }
      ],
      "name": "OwnerChanged",
      "type": "event"
    },
    {
      "constant": true,
      "inputs": [],
      "name": "getTeamAddresses",
      "outputs": [
        {
          "name": "",
          "type": "address[]"
        }
      ],
      "payable": false,
      "stateMutability": "view",
      "type": "function"
    },
    {
      "constant": true,
      "inputs": [],
      "name": "getAllMatches",
      "outputs": [
        {
          "name": "",
          "type": "address[]"
        }
      ],
      "payable": false,
      "stateMutability": "view",
      "type": "function"
    },
    {
      "constant": true,
      "inputs": [],
      "name": "getActiveMatches",
      "outputs": [
        {
          "name": "",
          "type": "address[]"
        }
      ],
      "payable": false,
      "stateMutability": "view",
      "type": "function"
    },
    {
      "constant": false,
      "inputs": [
        {
          "name": "_nameTeam",
          "type": "string"
        }
      ],
      "name": "createTeam",
      "outputs": [],
      "payable": false,
      "stateMutability": "nonpayable",
      "type": "function"
    },
    {
      "constant": false,
      "inputs": [
        {
          "name": "_teamA",
          "type": "address"
        },
        {
          "name": "_teamB",
          "type": "address"
        },
        {
          "name": "_fee",
          "type": "uint256"
        }
      ],
      "name": "createMatch",
      "outputs": [],
      "payable": false,
      "stateMutability": "nonpayable",
      "type": "function"
    },
    {
      "constant": false,
      "inputs": [
        {
          "name": "_match",
          "type": "address"
        },
        {
          "name": "_id",
          "type": "uint8"
        }
      ],
      "name": "finishMatch",
      "outputs": [],
      "payable": false,
      "stateMutability": "nonpayable",
      "type": "function"
    },
    {
      "constant": false,
      "inputs": [
        {
          "name": "_match",
          "type": "address"
        },
        {
          "name": "_id",
          "type": "uint8"
        }
      ],
      "name": "burnMatch",
      "outputs": [],
      "payable": false,
      "stateMutability": "nonpayable",
      "type": "function"
    },
    {
      "constant": true,
      "inputs": [
        {
          "name": "_match",
          "type": "address"
        },
        {
          "name": "_id",
          "type": "uint8"
        }
      ],
      "name": "getMatchAddresses",
      "outputs": [
        {
          "name": "",
          "type": "address"
        }
      ],
      "payable": false,
      "stateMutability": "view",
      "type": "function"
    },
    {
      "constant": false,
      "inputs": [],
      "name": "withdrawBalance",
      "outputs": [],
      "payable": false,
      "stateMutability": "nonpayable",
      "type": "function"
    }
  ],
  "bytecode": "0x608060405234801561001057600080fd5b50336000806101000a81548173ffffffffffffffffffffffffffffffffffffffff021916908373ffffffffffffffffffffffffffffffffffffffff160217905550336000806101000a81548173ffffffffffffffffffffffffffffffffffffffff021916908373ffffffffffffffffffffffffffffffffffffffff1602179055506005600090806001815401808255809150509060018203906000526020600020016000909192909190916101000a81548173ffffffffffffffffffffffffffffffffffffffff021916908373ffffffffffffffffffffffffffffffffffffffff1602179055505061365f806101076000396000f300608060405260043610620000c7576000357c0100000000000000000000000000000000000000000000000000000000900463ffffffff16806313af403514620000c95780635531407b146200010f5780635df7235414620001805780635fd8c71014620001f05780637e6ed704146200020a57806389e52771146200029d5780638da5cb5b146200030e578063972fa53f1462000368578063a30a278014620003d4578063af947f891462000427578063c17c5a4514620004e9578063e1b7007c146200055a575b005b348015620000d657600080fd5b506200010d600480360381019080803573ffffffffffffffffffffffffffffffffffffffff169060200190929190505050620005ad565b005b3480156200011c57600080fd5b5062000127620006b0565b6040518080602001828103825283818151815260200191508051906020019060200280838360005b838110156200016c5780820151818401526020810190506200014f565b505050509050019250505060405180910390f35b3480156200018d57600080fd5b50620001ee600480360381019080803573ffffffffffffffffffffffffffffffffffffffff169060200190929190803573ffffffffffffffffffffffffffffffffffffffff1690602001909291908035906020019092919050505062000740565b005b348015620001fd57600080fd5b506200020862000b1e565b005b3480156200021757600080fd5b506200025b600480360381019080803573ffffffffffffffffffffffffffffffffffffffff169060200190929190803560ff16906020019092919050505062000c4a565b604051808273ffffffffffffffffffffffffffffffffffffffff1673ffffffffffffffffffffffffffffffffffffffff16815260200191505060405180910390f35b348015620002aa57600080fd5b50620002b562000d07565b6040518080602001828103825283818151815260200191508051906020019060200280838360005b83811015620002fa578082015181840152602081019050620002dd565b505050509050019250505060405180910390f35b3480156200031b57600080fd5b506200032662000d97565b604051808273ffffffffffffffffffffffffffffffffffffffff1673ffffffffffffffffffffffffffffffffffffffff16815260200191505060405180910390f35b3480156200037557600080fd5b50620003d2600480360381019080803590602001908201803590602001908080601f016020809104026020016040519081016040528093929190818152602001838380828437820191505050505050919291929050505062000dbc565b005b348015620003e157600080fd5b5062000425600480360381019080803573ffffffffffffffffffffffffffffffffffffffff169060200190929190803560ff16906020019092919050505062000fba565b005b3480156200043457600080fd5b506200046b600480360381019080803573ffffffffffffffffffffffffffffffffffffffff1690602001909291905050506200159b565b6040518080602001828103825283818151815260200191508051906020019080838360005b83811015620004ad57808201518184015260208101905062000490565b50505050905090810190601f168015620004db5780820380516001836020036101000a031916815260200191505b509250505060405180910390f35b348015620004f657600080fd5b50620005016200164f565b6040518080602001828103825283818151815260200191508051906020019060200280838360005b838110156200054657808201518184015260208101905062000529565b505050509050019250505060405180910390f35b3480156200056757600080fd5b50620005ab600480360381019080803573ffffffffffffffffffffffffffffffffffffffff169060200190929190803560ff169060200190929190505050620016df565b005b6000809054906101000a900473ffffffffffffffffffffffffffffffffffffffff1673ffffffffffffffffffffffffffffffffffffffff163373ffffffffffffffffffffffffffffffffffffffff161415156200060957600080fd5b806000806101000a81548173ffffffffffffffffffffffffffffffffffffffff021916908373ffffffffffffffffffffffffffffffffffffffff1602179055506000809054906101000a900473ffffffffffffffffffffffffffffffffffffffff1673ffffffffffffffffffffffffffffffffffffffff167fa2ea9883a321a3e97b8266c2b078bfeec6d50c711ed71f874a90d500ae2eaf3660405160405180910390a250565b606060058054806020026020016040519081016040528092919081815260200182805480156200073657602002820191906000526020600020905b8160009054906101000a900473ffffffffffffffffffffffffffffffffffffffff1673ffffffffffffffffffffffffffffffffffffffff1681526020019060010190808311620006eb575b5050505050905090565b60008060009054906101000a900473ffffffffffffffffffffffffffffffffffffffff1673ffffffffffffffffffffffffffffffffffffffff163373ffffffffffffffffffffffffffffffffffffffff161415156200079e57600080fd5b838383620007ab62001a4f565b808473ffffffffffffffffffffffffffffffffffffffff1673ffffffffffffffffffffffffffffffffffffffff1681526020018373ffffffffffffffffffffffffffffffffffffffff1673ffffffffffffffffffffffffffffffffffffffff1681526020018281526020019350505050604051809103906000f08015801562000838573d6000803e3d6000fd5b50905060058190806001815401808255809150509060018203906000526020600020016000909192909190916101000a81548173ffffffffffffffffffffffffffffffffffffffff021916908373ffffffffffffffffffffffffffffffffffffffff16021790555050620008bc600160058054905062001a3590919063ffffffff16565b600360008373ffffffffffffffffffffffffffffffffffffffff1673ffffffffffffffffffffffffffffffffffffffff1681526020019081526020016000208190555060048190806001815401808255809150509060018203906000526020600020016000909192909190916101000a81548173ffffffffffffffffffffffffffffffffffffffff021916908373ffffffffffffffffffffffffffffffffffffffff160217905550508373ffffffffffffffffffffffffffffffffffffffff1663f1664146826040518263ffffffff167c0100000000000000000000000000000000000000000000000000000000028152600401808273ffffffffffffffffffffffffffffffffffffffff1673ffffffffffffffffffffffffffffffffffffffff168152602001915050600060405180830381600087803b15801562000a0157600080fd5b505af115801562000a16573d6000803e3d6000fd5b505050508273ffffffffffffffffffffffffffffffffffffffff1663f1664146826040518263ffffffff167c0100000000000000000000000000000000000000000000000000000000028152600401808273ffffffffffffffffffffffffffffffffffffffff1673ffffffffffffffffffffffffffffffffffffffff168152602001915050600060405180830381600087803b15801562000ab657600080fd5b505af115801562000acb573d6000803e3d6000fd5b505050506004805490508173ffffffffffffffffffffffffffffffffffffffff167fd1ebc7add28b8ce8330e446f968268979278d678275a69305fb8c8150a73aa2c60405160405180910390a350505050565b6000809054906101000a900473ffffffffffffffffffffffffffffffffffffffff1673ffffffffffffffffffffffffffffffffffffffff163373ffffffffffffffffffffffffffffffffffffffff1614151562000b7a57600080fd5b6000809054906101000a900473ffffffffffffffffffffffffffffffffffffffff1673ffffffffffffffffffffffffffffffffffffffff166108fc3073ffffffffffffffffffffffffffffffffffffffff16319081150290604051600060405180830381858888f1935050505015801562000bf9573d6000803e3d6000fd5b507fb066edd5a5b403c56cd77d54223abfe82afc0e6f6aecfaf80eadac68eaf62f133073ffffffffffffffffffffffffffffffffffffffff16316040518082815260200191505060405180910390a1565b60008273ffffffffffffffffffffffffffffffffffffffff1663c55efed0836040518263ffffffff167c0100000000000000000000000000000000000000000000000000000000028152600401808260ff1660ff168152602001915050602060405180830381600087803b15801562000cc257600080fd5b505af115801562000cd7573d6000803e3d6000fd5b505050506040513d602081101562000cee57600080fd5b8101908080519060200190929190505050905092915050565b6060600180548060200260200160405190810160405280929190818152602001828054801562000d8d57602002820191906000526020600020905b8160009054906101000a900473ffffffffffffffffffffffffffffffffffffffff1673ffffffffffffffffffffffffffffffffffffffff168152602001906001019080831162000d42575b5050505050905090565b6000809054906101000a900473ffffffffffffffffffffffffffffffffffffffff1681565b60008060009054906101000a900473ffffffffffffffffffffffffffffffffffffffff1673ffffffffffffffffffffffffffffffffffffffff163373ffffffffffffffffffffffffffffffffffffffff1614151562000e1a57600080fd5b62000e2462001a60565b604051809103906000f08015801562000e41573d6000803e3d6000fd5b50905060018190806001815401808255809150509060018203906000526020600020016000909192909190916101000a81548173ffffffffffffffffffffffffffffffffffffffff021916908373ffffffffffffffffffffffffffffffffffffffff1602179055505081600260008373ffffffffffffffffffffffffffffffffffffffff1673ffffffffffffffffffffffffffffffffffffffff168152602001908152602001600020908051906020019062000eff92919062001a71565b508073ffffffffffffffffffffffffffffffffffffffff167fab9e6b2a615855ce1ed5dc476076888910d7776481a5fc561e17d72a842fd726836040518080602001828103825283818151815260200191508051906020019080838360005b8381101562000f7b57808201518184015260208101905062000f5e565b50505050905090810190601f16801562000fa95780820380516001836020036101000a031916815260200191505b509250505060405180910390a25050565b60008060008060008060009054906101000a900473ffffffffffffffffffffffffffffffffffffffff1673ffffffffffffffffffffffffffffffffffffffff163373ffffffffffffffffffffffffffffffffffffffff161415156200101e57600080fd5b6000600360008973ffffffffffffffffffffffffffffffffffffffff1673ffffffffffffffffffffffffffffffffffffffff16815260200190815260200160002054141515156200106e57600080fd5b600360008873ffffffffffffffffffffffffffffffffffffffff1673ffffffffffffffffffffffffffffffffffffffff168152602001908152602001600020549450620010cb600160058054905062001a3590919063ffffffff16565b9350600584815481101515620010dd57fe5b9060005260206000200160009054906101000a900473ffffffffffffffffffffffffffffffffffffffff169250826005868154811015156200111b57fe5b9060005260206000200160006101000a81548173ffffffffffffffffffffffffffffffffffffffff021916908373ffffffffffffffffffffffffffffffffffffffff16021790555060006005858154811015156200117557fe5b9060005260206000200160006101000a81548173ffffffffffffffffffffffffffffffffffffffff021916908373ffffffffffffffffffffffffffffffffffffffff1602179055506005805480919060019003620011d4919062001af8565b506000600360008973ffffffffffffffffffffffffffffffffffffffff1673ffffffffffffffffffffffffffffffffffffffff1681526020019081526020016000208190555084600360008573ffffffffffffffffffffffffffffffffffffffff1673ffffffffffffffffffffffffffffffffffffffff168152602001908152602001600020819055508673ffffffffffffffffffffffffffffffffffffffff1663fda31178876040518263ffffffff167c0100000000000000000000000000000000000000000000000000000000028152600401808260ff1660ff168152602001915050600060405180830381600087803b158015620012d457600080fd5b505af1158015620012e9573d6000803e3d6000fd5b505050508673ffffffffffffffffffffffffffffffffffffffff1663c55efed060016040518263ffffffff167c0100000000000000000000000000000000000000000000000000000000028152600401808260ff168152602001915050602060405180830381600087803b1580156200136157600080fd5b505af115801562001376573d6000803e3d6000fd5b505050506040513d60208110156200138d57600080fd5b810190808051906020019092919050505091508673ffffffffffffffffffffffffffffffffffffffff1663c55efed060026040518263ffffffff167c0100000000000000000000000000000000000000000000000000000000028152600401808260ff168152602001915050602060405180830381600087803b1580156200141457600080fd5b505af115801562001429573d6000803e3d6000fd5b505050506040513d60208110156200144057600080fd5b810190808051906020019092919050505090508173ffffffffffffffffffffffffffffffffffffffff1663a5e1a62d6040518163ffffffff167c0100000000000000000000000000000000000000000000000000000000028152600401600060405180830381600087803b158015620014b857600080fd5b505af1158015620014cd573d6000803e3d6000fd5b505050508073ffffffffffffffffffffffffffffffffffffffff1663a5e1a62d6040518163ffffffff167c0100000000000000000000000000000000000000000000000000000000028152600401600060405180830381600087803b1580156200153657600080fd5b505af11580156200154b573d6000803e3d6000fd5b505050503073ffffffffffffffffffffffffffffffffffffffff167f74845808423af23a7a48a1f90bfe64951943b55e44008afd2bc21d4689119fbe60405160405180910390a250505050505050565b60026020528060005260406000206000915090508054600181600116156101000203166002900480601f016020809104026020016040519081016040528092919081815260200182805460018160011615610100020316600290048015620016475780601f106200161b5761010080835404028352916020019162001647565b820191906000526020600020905b8154815290600101906020018083116200162957829003601f168201915b505050505081565b60606004805480602002602001604051908101604052809291908181526020018280548015620016d557602002820191906000526020600020905b8160009054906101000a900473ffffffffffffffffffffffffffffffffffffffff1673ffffffffffffffffffffffffffffffffffffffff16815260200190600101908083116200168a575b5050505050905090565b6000806000809054906101000a900473ffffffffffffffffffffffffffffffffffffffff1673ffffffffffffffffffffffffffffffffffffffff163373ffffffffffffffffffffffffffffffffffffffff161415156200173e57600080fd5b8373ffffffffffffffffffffffffffffffffffffffff1663c55efed060016040518263ffffffff167c0100000000000000000000000000000000000000000000000000000000028152600401808260ff168152602001915050602060405180830381600087803b158015620017b257600080fd5b505af1158015620017c7573d6000803e3d6000fd5b505050506040513d6020811015620017de57600080fd5b810190808051906020019092919050505091508373ffffffffffffffffffffffffffffffffffffffff1663c55efed060026040518263ffffffff167c0100000000000000000000000000000000000000000000000000000000028152600401808260ff168152602001915050602060405180830381600087803b1580156200186557600080fd5b505af11580156200187a573d6000803e3d6000fd5b505050506040513d60208110156200189157600080fd5b810190808051906020019092919050505090508373ffffffffffffffffffffffffffffffffffffffff16634d0b5fa4846040518263ffffffff167c0100000000000000000000000000000000000000000000000000000000028152600401808260ff1660ff168152602001915050600060405180830381600087803b1580156200191a57600080fd5b505af11580156200192f573d6000803e3d6000fd5b505050508173ffffffffffffffffffffffffffffffffffffffff1663a5e1a62d6040518163ffffffff167c0100000000000000000000000000000000000000000000000000000000028152600401600060405180830381600087803b1580156200199857600080fd5b505af1158015620019ad573d6000803e3d6000fd5b505050508073ffffffffffffffffffffffffffffffffffffffff1663a5e1a62d6040518163ffffffff167c0100000000000000000000000000000000000000000000000000000000028152600401600060405180830381600087803b15801562001a1657600080fd5b505af115801562001a2b573d6000803e3d6000fd5b5050505050505050565b600082821115151562001a4457fe5b818303905092915050565b6040516114818062001b5083390190565b6040516106638062002fd183390190565b828054600181600116156101000203166002900490600052602060002090601f016020900481019282601f1062001ab457805160ff191683800117855562001ae5565b8280016001018555821562001ae5579182015b8281111562001ae457825182559160200191906001019062001ac7565b5b50905062001af4919062001b27565b5090565b81548183558181111562001b225781836000526020600020918201910162001b21919062001b27565b5b505050565b62001b4c91905b8082111562001b4857600081600090555060010162001b2e565b5090565b905600608060405234801561001057600080fd5b50604051606080611481833981018060405281019080805190602001909291908051906020019092919080519060200190929190505050336000806101000a81548173ffffffffffffffffffffffffffffffffffffffff021916908373ffffffffffffffffffffffffffffffffffffffff160217905550612710811080156100995750600a8110155b15156100a157fe5b336000806101000a81548173ffffffffffffffffffffffffffffffffffffffff021916908373ffffffffffffffffffffffffffffffffffffffff1602179055506001600360008573ffffffffffffffffffffffffffffffffffffffff1673ffffffffffffffffffffffffffffffffffffffff16815260200190815260200160002060006101000a81548160ff021916908360ff1602179055506002600360008473ffffffffffffffffffffffffffffffffffffffff1673ffffffffffffffffffffffffffffffffffffffff16815260200190815260200160002060006101000a81548160ff021916908360ff16021790555082600560016003811015156101a457fe5b0160006101000a81548173ffffffffffffffffffffffffffffffffffffffff021916908373ffffffffffffffffffffffffffffffffffffffff16021790555081600560026003811015156101f457fe5b0160006101000a81548173ffffffffffffffffffffffffffffffffffffffff021916908373ffffffffffffffffffffffffffffffffffffffff1602179055506000600b60006101000a81548160ff021916908360ff1602179055508060048190555062989680600c8190555050505061120f806102726000396000f3006080604052600436106100d0576000357c0100000000000000000000000000000000000000000000000000000000900463ffffffff1680630417cf8e146100d25780630e1a1dc4146100fd57806313af40351461012e5780633d8a03af146101715780634d0b5fa4146102175780637de7770e146102475780638da5cb5b146102b45780638e7ea5b21461030b5780639a55bb7e14610362578063c55efed0146103b8578063c69bc1e314610428578063c705c60e14610469578063eee1d3ad146104cd578063fda3117814610547575b005b3480156100de57600080fd5b506100e7610577565b6040518082815260200191505060405180910390f35b34801561010957600080fd5b5061011261057d565b604051808260ff1660ff16815260200191505060405180910390f35b34801561013a57600080fd5b5061016f600480360381019080803573ffffffffffffffffffffffffffffffffffffffff169060200190929190505050610590565b005b34801561017d57600080fd5b50610186610692565b604051808773ffffffffffffffffffffffffffffffffffffffff1673ffffffffffffffffffffffffffffffffffffffff1681526020018673ffffffffffffffffffffffffffffffffffffffff1673ffffffffffffffffffffffffffffffffffffffff168152602001858152602001848152602001838152602001828152602001965050505050505060405180910390f35b34801561022357600080fd5b50610245600480360381019080803560ff16906020019092919050505061074d565b005b34801561025357600080fd5b5061027260048036038101908080359060200190929190505050610961565b604051808273ffffffffffffffffffffffffffffffffffffffff1673ffffffffffffffffffffffffffffffffffffffff16815260200191505060405180910390f35b3480156102c057600080fd5b506102c9610996565b604051808273ffffffffffffffffffffffffffffffffffffffff1673ffffffffffffffffffffffffffffffffffffffff16815260200191505060405180910390f35b34801561031757600080fd5b506103206109bb565b604051808273ffffffffffffffffffffffffffffffffffffffff1673ffffffffffffffffffffffffffffffffffffffff16815260200191505060405180910390f35b6103b6600480360381019080803573ffffffffffffffffffffffffffffffffffffffff169060200190929190803573ffffffffffffffffffffffffffffffffffffffff169060200190929190505050610a05565b005b3480156103c457600080fd5b506103e6600480360381019080803560ff169060200190929190505050610ce6565b604051808273ffffffffffffffffffffffffffffffffffffffff1673ffffffffffffffffffffffffffffffffffffffff16815260200191505060405180910390f35b34801561043457600080fd5b5061045360048036038101908080359060200190929190505050610d23565b6040518082815260200191505060405180910390f35b34801561047557600080fd5b506104b7600480360381019080803573ffffffffffffffffffffffffffffffffffffffff169060200190929190803560ff169060200190929190505050610d3d565b6040518082815260200191505060405180910390f35b3480156104d957600080fd5b50610505600480360381019080803560ff16906020019092919080359060200190929190505050610d62565b604051808273ffffffffffffffffffffffffffffffffffffffff1673ffffffffffffffffffffffffffffffffffffffff16815260200191505060405180910390f35b34801561055357600080fd5b50610575600480360381019080803560ff169060200190929190505050610daf565b005b600c5481565b600b60009054906101000a900460ff1681565b6000809054906101000a900473ffffffffffffffffffffffffffffffffffffffff1673ffffffffffffffffffffffffffffffffffffffff163373ffffffffffffffffffffffffffffffffffffffff161415156105eb57600080fd5b806000806101000a81548173ffffffffffffffffffffffffffffffffffffffff021916908373ffffffffffffffffffffffffffffffffffffffff1602179055506000809054906101000a900473ffffffffffffffffffffffffffffffffffffffff1673ffffffffffffffffffffffffffffffffffffffff167fa2ea9883a321a3e97b8266c2b078bfeec6d50c711ed71f874a90d500ae2eaf3660405160405180910390a250565b600080600080600080600560016003811015156106ab57fe5b0160009054906101000a900473ffffffffffffffffffffffffffffffffffffffff169550600560026003811015156106df57fe5b0160009054906101000a900473ffffffffffffffffffffffffffffffffffffffff1694506008600160038110151561071357fe5b015493506008600260038110151561072757fe5b01549250600b60009054906101000a900460ff1660ff1691506004549050909192939495565b60008060008060009054906101000a900473ffffffffffffffffffffffffffffffffffffffff1673ffffffffffffffffffffffffffffffffffffffff163373ffffffffffffffffffffffffffffffffffffffff161415156107ad57600080fd5b60038460ff1614806107c2575060048460ff16145b15156107cd57600080fd5b600192505b60038360ff16101561091157600091505b600260008460ff1660ff1681526020019081526020016000208054905082101561090457600260008460ff1660ff1681526020019081526020016000208281548110151561082d57fe5b9060005260206000200160009054906101000a900473ffffffffffffffffffffffffffffffffffffffff1690508073ffffffffffffffffffffffffffffffffffffffff166108fc600160008473ffffffffffffffffffffffffffffffffffffffff1673ffffffffffffffffffffffffffffffffffffffff16815260200190815260200160002060008660ff1660ff168152602001908152602001600020549081150290604051600060405180830381858888f193505050501580156108f6573d6000803e3d6000fd5b5081806001019250506107e3565b82806001019350506107d2565b60038460ff16141561093e576003600b60006101000a81548160ff021916908360ff16021790555061095b565b6004600b60006101000a81548160ff021916908360ff1602179055505b50505050565b60058160038110151561097057fe5b016000915054906101000a900473ffffffffffffffffffffffffffffffffffffffff1681565b6000809054906101000a900473ffffffffffffffffffffffffffffffffffffffff1681565b60006005600b60009054906101000a900460ff1660ff166003811015156109de57fe5b0160009054906101000a900473ffffffffffffffffffffffffffffffffffffffff16905090565b6000600360008473ffffffffffffffffffffffffffffffffffffffff1673ffffffffffffffffffffffffffffffffffffffff16815260200190815260200160002060009054906101000a900460ff1690506000600160008473ffffffffffffffffffffffffffffffffffffffff1673ffffffffffffffffffffffffffffffffffffffff16815260200190815260200160002060008360ff1660ff168152602001908152602001600020541415610b3357600260008260ff1660ff1681526020019081526020016000208290806001815401808255809150509060018203906000526020600020016000909192909190916101000a81548173ffffffffffffffffffffffffffffffffffffffff021916908373ffffffffffffffffffffffffffffffffffffffff160217905550505b610b9c34600160008573ffffffffffffffffffffffffffffffffffffffff1673ffffffffffffffffffffffffffffffffffffffff16815260200190815260200160002060008460ff1660ff1681526020019081526020016000205461116090919063ffffffff16565b600160008473ffffffffffffffffffffffffffffffffffffffff1673ffffffffffffffffffffffffffffffffffffffff16815260200190815260200160002060008360ff1660ff16815260200190815260200160002081905550610c1c3460088360ff16600381101515610c0c57fe5b015461116090919063ffffffff16565b60088260ff16600381101515610c2e57fe5b01819055508173ffffffffffffffffffffffffffffffffffffffff167fa232bdf5a726d5d6e5094f23b42209978334eee84ce0f1ec5017e649040ae82c8430604051808373ffffffffffffffffffffffffffffffffffffffff1673ffffffffffffffffffffffffffffffffffffffff1681526020018273ffffffffffffffffffffffffffffffffffffffff1673ffffffffffffffffffffffffffffffffffffffff1681526020019250505060405180910390a2505050565b600060058260ff16600381101515610cfa57fe5b0160009054906101000a900473ffffffffffffffffffffffffffffffffffffffff169050919050565b600881600381101515610d3257fe5b016000915090505481565b6001602052816000526040600020602052806000526040600020600091509150505481565b600260205281600052604060002081815481101515610d7d57fe5b906000526020600020016000915091509054906101000a900473ffffffffffffffffffffffffffffffffffffffff1681565b6000806000806000809054906101000a900473ffffffffffffffffffffffffffffffffffffffff1673ffffffffffffffffffffffffffffffffffffffff163373ffffffffffffffffffffffffffffffffffffffff16141515610e1057600080fd5b60018560ff161480610e25575060028560ff16145b1515610e3057600080fd5b600060086001600381101515610e4257fe5b0154118015610e625750600060086002600381101515610e5e57fe5b0154115b1515610e6a57fe5b84600b60006101000a81548160ff021916908360ff160217905550610ee8612710610eda610ea560045461271061117c90919063ffffffff16565b6008610ebe8a60ff16600361117c90919063ffffffff16565b600381101515610eca57fe5b015461119590919063ffffffff16565b6111cd90919063ffffffff16565b9350600092505b600260008660ff1660ff168152602001908152602001600020805490508310156110da57600260008660ff1660ff16815260200190815260200160002083815481101515610f3957fe5b9060005260206000200160009054906101000a900473ffffffffffffffffffffffffffffffffffffffff169150610ff660088660ff16600381101515610f7b57fe5b0154610fe8600c54600160008773ffffffffffffffffffffffffffffffffffffffff1673ffffffffffffffffffffffffffffffffffffffff16815260200190815260200160002060008a60ff1660ff1681526020019081526020016000205461119590919063ffffffff16565b6111cd90919063ffffffff16565b90508173ffffffffffffffffffffffffffffffffffffffff166108fc6110a161103c600c5461102e898761119590919063ffffffff16565b6111cd90919063ffffffff16565b600160008773ffffffffffffffffffffffffffffffffffffffff1673ffffffffffffffffffffffffffffffffffffffff16815260200190815260200160002060008a60ff1660ff1681526020019081526020016000205461116090919063ffffffff16565b9081150290604051600060405180830381858888f193505050501580156110cc573d6000803e3d6000fd5b508280600101935050610eef565b6000809054906101000a900473ffffffffffffffffffffffffffffffffffffffff1673ffffffffffffffffffffffffffffffffffffffff166108fc3073ffffffffffffffffffffffffffffffffffffffff16319081150290604051600060405180830381858888f19350505050158015611158573d6000803e3d6000fd5b505050505050565b6000818301905082811015151561117357fe5b80905092915050565b600082821115151561118a57fe5b818303905092915050565b6000808314156111a857600090506111c7565b81830290508183828115156111b957fe5b041415156111c357fe5b8090505b92915050565b600081838115156111da57fe5b049050929150505600a165627a7a7230582095ccbed0578f6173126799911dd2273d6bb824f1713264358d5df14433ae971d0029608060405234801561001057600080fd5b50336000806101000a81548173ffffffffffffffffffffffffffffffffffffffff021916908373ffffffffffffffffffffffffffffffffffffffff160217905550336000806101000a81548173ffffffffffffffffffffffffffffffffffffffff021916908373ffffffffffffffffffffffffffffffffffffffff1602179055506105c3806100a06000396000f30060806040526004361061006d576000357c0100000000000000000000000000000000000000000000000000000000900463ffffffff16806313af4035146101c15780632c70444e146102045780638da5cb5b1461025b578063a5e1a62d146102b2578063f1664146146102c9575b6000600160009054906101000a900473ffffffffffffffffffffffffffffffffffffffff1673ffffffffffffffffffffffffffffffffffffffff16141515156100b557600080fd5b600160009054906101000a900473ffffffffffffffffffffffffffffffffffffffff1673ffffffffffffffffffffffffffffffffffffffff16639a55bb7e3430336040518463ffffffff167c0100000000000000000000000000000000000000000000000000000000028152600401808373ffffffffffffffffffffffffffffffffffffffff1673ffffffffffffffffffffffffffffffffffffffff1681526020018273ffffffffffffffffffffffffffffffffffffffff1673ffffffffffffffffffffffffffffffffffffffff168152602001925050506000604051808303818588803b1580156101a657600080fd5b505af11580156101ba573d6000803e3d6000fd5b5050505050005b3480156101cd57600080fd5b50610202600480360381019080803573ffffffffffffffffffffffffffffffffffffffff16906020019092919050505061030c565b005b34801561021057600080fd5b5061021961040e565b604051808273ffffffffffffffffffffffffffffffffffffffff1673ffffffffffffffffffffffffffffffffffffffff16815260200191505060405180910390f35b34801561026757600080fd5b50610270610434565b604051808273ffffffffffffffffffffffffffffffffffffffff1673ffffffffffffffffffffffffffffffffffffffff16815260200191505060405180910390f35b3480156102be57600080fd5b506102c7610459565b005b3480156102d557600080fd5b5061030a600480360381019080803573ffffffffffffffffffffffffffffffffffffffff1690602001909291905050506104f8565b005b6000809054906101000a900473ffffffffffffffffffffffffffffffffffffffff1673ffffffffffffffffffffffffffffffffffffffff163373ffffffffffffffffffffffffffffffffffffffff1614151561036757600080fd5b806000806101000a81548173ffffffffffffffffffffffffffffffffffffffff021916908373ffffffffffffffffffffffffffffffffffffffff1602179055506000809054906101000a900473ffffffffffffffffffffffffffffffffffffffff1673ffffffffffffffffffffffffffffffffffffffff167fa2ea9883a321a3e97b8266c2b078bfeec6d50c711ed71f874a90d500ae2eaf3660405160405180910390a250565b600160009054906101000a900473ffffffffffffffffffffffffffffffffffffffff1681565b6000809054906101000a900473ffffffffffffffffffffffffffffffffffffffff1681565b6000809054906101000a900473ffffffffffffffffffffffffffffffffffffffff1673ffffffffffffffffffffffffffffffffffffffff163373ffffffffffffffffffffffffffffffffffffffff161415156104b457600080fd5b6000600160006101000a81548173ffffffffffffffffffffffffffffffffffffffff021916908373ffffffffffffffffffffffffffffffffffffffff160217905550565b6000809054906101000a900473ffffffffffffffffffffffffffffffffffffffff1673ffffffffffffffffffffffffffffffffffffffff163373ffffffffffffffffffffffffffffffffffffffff1614151561055357600080fd5b80600160006101000a81548173ffffffffffffffffffffffffffffffffffffffff021916908373ffffffffffffffffffffffffffffffffffffffff160217905550505600a165627a7a723058207d59d3615d824b755a35ba2f870e366966733abf1236709be894bb18c82f96080029a165627a7a72305820d0eb45ae1014fd5f1ff9e7bc7eeba5da9b99e9cb94e9d7756f035f93070d9b520029",
  "source": "pragma solidity ^ 0.4 .24;\r\n\r\nimport \"./Match.sol\";\r\n\r\ncontract GameManager is Restricted {\r\n    \r\n    event MatchCreated(address indexed _contract, uint indexed _id);\r\n    event GameCreated(address indexed _address, string _name);\r\n    event MatchFinished(address indexed _match);\r\n    event BalanceWithDrawn(uint balance);\r\n    \r\n    address[] teamsAddresses;\r\n    mapping(address => string) public teamsNames;\r\n    \r\n    function getTeamAddresses() public view returns(address[]) {\r\n        return teamsAddresses;\r\n    }\r\n    \r\n    // Use SafeMath\r\n    using SafeMath for uint256;\r\n\r\n    // Active Matches address mapping index\r\n    mapping(address => uint256) activeMatchsIndex;\r\n\r\n    // Arrays\r\n    address[] internal allMatchs;\r\n    address[] internal activeMatchs;\r\n\r\n    // Initial state of Contract\r\n    constructor() public {\r\n        owner = msg.sender;\r\n        activeMatchs.push(0);\r\n    }\r\n\r\n    function getAllMatches() public view returns(address[]) {\r\n        return allMatchs;\r\n    }\r\n\r\n    function getActiveMatches() public view returns(address[]) {\r\n        return activeMatchs;\r\n    }\r\n\r\n    function createTeam(string _nameTeam) public onlyOwner {\r\n        Team newTeam = new Team();\r\n        teamsAddresses.push(address(newTeam));\r\n        teamsNames[address(newTeam)] = _nameTeam;\r\n        \r\n        emit GameCreated(newTeam, _nameTeam);\r\n    }\r\n    \r\n    function createMatch(address _teamA, address _teamB, uint256 _fee) onlyOwner public {\r\n        Match newMatch = new Match(_teamA, _teamB, _fee);\r\n        activeMatchs.push(newMatch);\r\n        activeMatchsIndex[newMatch] = activeMatchs.length.sub(1);\r\n        allMatchs.push(newMatch);\r\n        \r\n        // Set Team's Owner\r\n        (Team(_teamA)).setMatch(address(newMatch));\r\n        (Team(_teamB)).setMatch(address(newMatch));\r\n        \r\n        emit MatchCreated(newMatch, allMatchs.length);\r\n    }\r\n    \r\n    function finishMatch(address _match, uint8 _id) onlyOwner public {\r\n        // Modify state of Child Match\r\n        // Type 3: Draw\r\n        // Type 4: Cancel\r\n        address teamA = (Match(_match)).getTeamAddress(1);\r\n        address teamB = (Match(_match)).getTeamAddress(2);\r\n        \r\n        (Match(_match)).finishMatch(_id);\r\n        \r\n        Team(teamA).endMatch();\r\n        Team(teamB).endMatch();\r\n        \r\n    }\r\n\r\n    // No Winner = 0\r\n    // Team A = 1\r\n    // Team B = 2\r\n    function burnMatch(address _match, uint8 _id) onlyOwner public {\r\n        require(activeMatchsIndex[_match] != 0);\r\n\r\n        // Reorg all Matchs array\r\n        uint256 matchIndex = activeMatchsIndex[_match];\r\n        uint256 lastMatchIndex = activeMatchs.length.sub(1);\r\n        address lastMatch = activeMatchs[lastMatchIndex];\r\n\r\n        activeMatchs[matchIndex] = lastMatch;\r\n        activeMatchs[lastMatchIndex] = 0;\r\n\r\n        activeMatchs.length--;\r\n        activeMatchsIndex[_match] = 0;\r\n        activeMatchsIndex[lastMatch] = matchIndex;\r\n\r\n        // Modify state of Child Match\r\n        (Match(_match)).setWinner(_id);\r\n        \r\n        // Get Match Teams Addresses\r\n        address teamA = (Match(_match)).getTeamAddress(1);\r\n        address teamB = (Match(_match)).getTeamAddress(2);\r\n        \r\n        Team(teamA).endMatch();\r\n        Team(teamB).endMatch();\r\n        \r\n        emit MatchFinished(this);\r\n        // TODO: TEST POSSIBLE ISSUES WITH GAME OWNER \r\n        // VIEW MSG SENDER AND MSG DELEGATE\r\n    }\r\n    \r\n    function getMatchAddresses(address _match, uint8 _id) public view returns(address){\r\n        return (Match(_match).getTeamAddress(_id));\r\n    }\r\n    \r\n    function withdrawBalance() public onlyOwner {\r\n        owner.transfer(address(this).balance);\r\n        emit BalanceWithDrawn(address(this).balance);\r\n    }\r\n\r\n    function () internal payable {\r\n        // TODO: VALIDATE ETH PAYMENTS\r\n    }\r\n}",
  "sourcePath": "C:\\Users\\Bogo\\Desktop\\truffle-practice\\compiler\\contracts\\GameManager.sol",
  "compiler": {
    "name": "solc",
    "version": "0.4.24+commit.e67f0147.Emscripten.clang"
  },
  "schemaVersion": "2.0.1",
  "updatedAt": "2018-09-01T15:14:12.362Z"
}