{
  "contractName": "Match",
  "abi": [
    {
      "constant": true,
      "inputs": [],
      "name": "MAX_DECIMALS",
      "outputs": [
        {
          "name": "",
          "type": "uint256"
        }
      ],
      "payable": false,
      "stateMutability": "view",
      "type": "function"
    },
    {
      "constant": true,
      "inputs": [],
      "name": "matchStatus",
      "outputs": [
        {
          "name": "",
          "type": "uint8"
        }
      ],
      "payable": false,
      "stateMutability": "view",
      "type": "function"
    },
    {
      "constant": false,
      "inputs": [
        {
          "name": "_owner",
          "type": "address"
        }
      ],
      "name": "setOwner",
      "outputs": [],
      "payable": false,
      "stateMutability": "nonpayable",
      "type": "function"
    },
    {
      "constant": true,
      "inputs": [
        {
          "name": "",
          "type": "uint256"
        }
      ],
      "name": "teamAddress",
      "outputs": [
        {
          "name": "",
          "type": "address"
        }
      ],
      "payable": false,
      "stateMutability": "view",
      "type": "function"
    },
    {
      "constant": true,
      "inputs": [],
      "name": "owner",
      "outputs": [
        {
          "name": "",
          "type": "address"
        }
      ],
      "payable": false,
      "stateMutability": "view",
      "type": "function"
    },
    {
      "constant": true,
      "inputs": [
        {
          "name": "",
          "type": "uint256"
        }
      ],
      "name": "teamPools",
      "outputs": [
        {
          "name": "",
          "type": "uint256"
        }
      ],
      "payable": false,
      "stateMutability": "view",
      "type": "function"
    },
    {
      "constant": true,
      "inputs": [
        {
          "name": "",
          "type": "address"
        },
        {
          "name": "",
          "type": "uint8"
        }
      ],
      "name": "balances",
      "outputs": [
        {
          "name": "",
          "type": "uint256"
        }
      ],
      "payable": false,
      "stateMutability": "view",
      "type": "function"
    },
    {
      "constant": true,
      "inputs": [
        {
          "name": "",
          "type": "uint8"
        },
        {
          "name": "",
          "type": "uint256"
        }
      ],
      "name": "teamBets",
      "outputs": [
        {
          "name": "",
          "type": "address"
        }
      ],
      "payable": false,
      "stateMutability": "view",
      "type": "function"
    },
    {
      "inputs": [
        {
          "name": "_team1",
          "type": "address"
        },
        {
          "name": "_team2",
          "type": "address"
        },
        {
          "name": "_commision",
          "type": "uint256"
        }
      ],
      "payable": false,
      "stateMutability": "nonpayable",
      "type": "constructor"
    },
    {
      "payable": true,
      "stateMutability": "payable",
      "type": "fallback"
    },
    {
      "anonymous": false,
      "inputs": [
        {
          "indexed": true,
          "name": "_player",
          "type": "address"
        },
        {
          "indexed": false,
          "name": "_team",
          "type": "address"
        },
        {
          "indexed": false,
          "name": "_match",
          "type": "address"
        }
      ],
      "name": "BetSet",
      "type": "event"
    },
    {
      "anonymous": false,
      "inputs": [
        {
          "indexed": true,
          "name": "newOwner",
          "type": "address"
        }
      ],
      "name": "OwnerChanged",
      "type": "event"
    },
    {
      "constant": true,
      "inputs": [],
      "name": "getMatch",
      "outputs": [
        {
          "name": "_team1",
          "type": "address"
        },
        {
          "name": "_team2",
          "type": "address"
        },
        {
          "name": "_poolTeam1",
          "type": "uint256"
        },
        {
          "name": "_poolTeam2",
          "type": "uint256"
        },
        {
          "name": "_winner",
          "type": "uint256"
        },
        {
          "name": "_commision",
          "type": "uint256"
        }
      ],
      "payable": false,
      "stateMutability": "view",
      "type": "function"
    },
    {
      "constant": false,
      "inputs": [
        {
          "name": "_team",
          "type": "address"
        },
        {
          "name": "_sender",
          "type": "address"
        }
      ],
      "name": "setBet",
      "outputs": [],
      "payable": true,
      "stateMutability": "payable",
      "type": "function"
    },
    {
      "constant": true,
      "inputs": [],
      "name": "getWinner",
      "outputs": [
        {
          "name": "",
          "type": "address"
        }
      ],
      "payable": false,
      "stateMutability": "view",
      "type": "function"
    },
    {
      "constant": true,
      "inputs": [
        {
          "name": "_id",
          "type": "uint8"
        }
      ],
      "name": "getTeamAddress",
      "outputs": [
        {
          "name": "",
          "type": "address"
        }
      ],
      "payable": false,
      "stateMutability": "view",
      "type": "function"
    },
    {
      "constant": false,
      "inputs": [
        {
          "name": "_type",
          "type": "uint8"
        }
      ],
      "name": "finishMatch",
      "outputs": [],
      "payable": false,
      "stateMutability": "nonpayable",
      "type": "function"
    },
    {
      "constant": false,
      "inputs": [
        {
          "name": "_winner",
          "type": "uint8"
        }
      ],
      "name": "setWinner",
      "outputs": [],
      "payable": false,
      "stateMutability": "nonpayable",
      "type": "function"
    }
  ],
  "bytecode": "0x608060405234801561001057600080fd5b50604051606080611481833981018060405281019080805190602001909291908051906020019092919080519060200190929190505050336000806101000a81548173ffffffffffffffffffffffffffffffffffffffff021916908373ffffffffffffffffffffffffffffffffffffffff160217905550612710811080156100995750600a8110155b15156100a157fe5b336000806101000a81548173ffffffffffffffffffffffffffffffffffffffff021916908373ffffffffffffffffffffffffffffffffffffffff1602179055506001600360008573ffffffffffffffffffffffffffffffffffffffff1673ffffffffffffffffffffffffffffffffffffffff16815260200190815260200160002060006101000a81548160ff021916908360ff1602179055506002600360008473ffffffffffffffffffffffffffffffffffffffff1673ffffffffffffffffffffffffffffffffffffffff16815260200190815260200160002060006101000a81548160ff021916908360ff16021790555082600560016003811015156101a457fe5b0160006101000a81548173ffffffffffffffffffffffffffffffffffffffff021916908373ffffffffffffffffffffffffffffffffffffffff16021790555081600560026003811015156101f457fe5b0160006101000a81548173ffffffffffffffffffffffffffffffffffffffff021916908373ffffffffffffffffffffffffffffffffffffffff1602179055506000600b60006101000a81548160ff021916908360ff1602179055508060048190555062989680600c8190555050505061120f806102726000396000f3006080604052600436106100d0576000357c0100000000000000000000000000000000000000000000000000000000900463ffffffff1680630417cf8e146100d25780630e1a1dc4146100fd57806313af40351461012e5780633d8a03af146101715780634d0b5fa4146102175780637de7770e146102475780638da5cb5b146102b45780638e7ea5b21461030b5780639a55bb7e14610362578063c55efed0146103b8578063c69bc1e314610428578063c705c60e14610469578063eee1d3ad146104cd578063fda3117814610547575b005b3480156100de57600080fd5b506100e7610577565b6040518082815260200191505060405180910390f35b34801561010957600080fd5b5061011261057d565b604051808260ff1660ff16815260200191505060405180910390f35b34801561013a57600080fd5b5061016f600480360381019080803573ffffffffffffffffffffffffffffffffffffffff169060200190929190505050610590565b005b34801561017d57600080fd5b50610186610692565b604051808773ffffffffffffffffffffffffffffffffffffffff1673ffffffffffffffffffffffffffffffffffffffff1681526020018673ffffffffffffffffffffffffffffffffffffffff1673ffffffffffffffffffffffffffffffffffffffff168152602001858152602001848152602001838152602001828152602001965050505050505060405180910390f35b34801561022357600080fd5b50610245600480360381019080803560ff16906020019092919050505061074d565b005b34801561025357600080fd5b5061027260048036038101908080359060200190929190505050610961565b604051808273ffffffffffffffffffffffffffffffffffffffff1673ffffffffffffffffffffffffffffffffffffffff16815260200191505060405180910390f35b3480156102c057600080fd5b506102c9610996565b604051808273ffffffffffffffffffffffffffffffffffffffff1673ffffffffffffffffffffffffffffffffffffffff16815260200191505060405180910390f35b34801561031757600080fd5b506103206109bb565b604051808273ffffffffffffffffffffffffffffffffffffffff1673ffffffffffffffffffffffffffffffffffffffff16815260200191505060405180910390f35b6103b6600480360381019080803573ffffffffffffffffffffffffffffffffffffffff169060200190929190803573ffffffffffffffffffffffffffffffffffffffff169060200190929190505050610a05565b005b3480156103c457600080fd5b506103e6600480360381019080803560ff169060200190929190505050610ce6565b604051808273ffffffffffffffffffffffffffffffffffffffff1673ffffffffffffffffffffffffffffffffffffffff16815260200191505060405180910390f35b34801561043457600080fd5b5061045360048036038101908080359060200190929190505050610d23565b6040518082815260200191505060405180910390f35b34801561047557600080fd5b506104b7600480360381019080803573ffffffffffffffffffffffffffffffffffffffff169060200190929190803560ff169060200190929190505050610d3d565b6040518082815260200191505060405180910390f35b3480156104d957600080fd5b50610505600480360381019080803560ff16906020019092919080359060200190929190505050610d62565b604051808273ffffffffffffffffffffffffffffffffffffffff1673ffffffffffffffffffffffffffffffffffffffff16815260200191505060405180910390f35b34801561055357600080fd5b50610575600480360381019080803560ff169060200190929190505050610daf565b005b600c5481565b600b60009054906101000a900460ff1681565b6000809054906101000a900473ffffffffffffffffffffffffffffffffffffffff1673ffffffffffffffffffffffffffffffffffffffff163373ffffffffffffffffffffffffffffffffffffffff161415156105eb57600080fd5b806000806101000a81548173ffffffffffffffffffffffffffffffffffffffff021916908373ffffffffffffffffffffffffffffffffffffffff1602179055506000809054906101000a900473ffffffffffffffffffffffffffffffffffffffff1673ffffffffffffffffffffffffffffffffffffffff167fa2ea9883a321a3e97b8266c2b078bfeec6d50c711ed71f874a90d500ae2eaf3660405160405180910390a250565b600080600080600080600560016003811015156106ab57fe5b0160009054906101000a900473ffffffffffffffffffffffffffffffffffffffff169550600560026003811015156106df57fe5b0160009054906101000a900473ffffffffffffffffffffffffffffffffffffffff1694506008600160038110151561071357fe5b015493506008600260038110151561072757fe5b01549250600b60009054906101000a900460ff1660ff1691506004549050909192939495565b60008060008060009054906101000a900473ffffffffffffffffffffffffffffffffffffffff1673ffffffffffffffffffffffffffffffffffffffff163373ffffffffffffffffffffffffffffffffffffffff161415156107ad57600080fd5b60038460ff1614806107c2575060048460ff16145b15156107cd57600080fd5b600192505b60038360ff16101561091157600091505b600260008460ff1660ff1681526020019081526020016000208054905082101561090457600260008460ff1660ff1681526020019081526020016000208281548110151561082d57fe5b9060005260206000200160009054906101000a900473ffffffffffffffffffffffffffffffffffffffff1690508073ffffffffffffffffffffffffffffffffffffffff166108fc600160008473ffffffffffffffffffffffffffffffffffffffff1673ffffffffffffffffffffffffffffffffffffffff16815260200190815260200160002060008660ff1660ff168152602001908152602001600020549081150290604051600060405180830381858888f193505050501580156108f6573d6000803e3d6000fd5b5081806001019250506107e3565b82806001019350506107d2565b60038460ff16141561093e576003600b60006101000a81548160ff021916908360ff16021790555061095b565b6004600b60006101000a81548160ff021916908360ff1602179055505b50505050565b60058160038110151561097057fe5b016000915054906101000a900473ffffffffffffffffffffffffffffffffffffffff1681565b6000809054906101000a900473ffffffffffffffffffffffffffffffffffffffff1681565b60006005600b60009054906101000a900460ff1660ff166003811015156109de57fe5b0160009054906101000a900473ffffffffffffffffffffffffffffffffffffffff16905090565b6000600360008473ffffffffffffffffffffffffffffffffffffffff1673ffffffffffffffffffffffffffffffffffffffff16815260200190815260200160002060009054906101000a900460ff1690506000600160008473ffffffffffffffffffffffffffffffffffffffff1673ffffffffffffffffffffffffffffffffffffffff16815260200190815260200160002060008360ff1660ff168152602001908152602001600020541415610b3357600260008260ff1660ff1681526020019081526020016000208290806001815401808255809150509060018203906000526020600020016000909192909190916101000a81548173ffffffffffffffffffffffffffffffffffffffff021916908373ffffffffffffffffffffffffffffffffffffffff160217905550505b610b9c34600160008573ffffffffffffffffffffffffffffffffffffffff1673ffffffffffffffffffffffffffffffffffffffff16815260200190815260200160002060008460ff1660ff1681526020019081526020016000205461116090919063ffffffff16565b600160008473ffffffffffffffffffffffffffffffffffffffff1673ffffffffffffffffffffffffffffffffffffffff16815260200190815260200160002060008360ff1660ff16815260200190815260200160002081905550610c1c3460088360ff16600381101515610c0c57fe5b015461116090919063ffffffff16565b60088260ff16600381101515610c2e57fe5b01819055508173ffffffffffffffffffffffffffffffffffffffff167fa232bdf5a726d5d6e5094f23b42209978334eee84ce0f1ec5017e649040ae82c8430604051808373ffffffffffffffffffffffffffffffffffffffff1673ffffffffffffffffffffffffffffffffffffffff1681526020018273ffffffffffffffffffffffffffffffffffffffff1673ffffffffffffffffffffffffffffffffffffffff1681526020019250505060405180910390a2505050565b600060058260ff16600381101515610cfa57fe5b0160009054906101000a900473ffffffffffffffffffffffffffffffffffffffff169050919050565b600881600381101515610d3257fe5b016000915090505481565b6001602052816000526040600020602052806000526040600020600091509150505481565b600260205281600052604060002081815481101515610d7d57fe5b906000526020600020016000915091509054906101000a900473ffffffffffffffffffffffffffffffffffffffff1681565b6000806000806000809054906101000a900473ffffffffffffffffffffffffffffffffffffffff1673ffffffffffffffffffffffffffffffffffffffff163373ffffffffffffffffffffffffffffffffffffffff16141515610e1057600080fd5b60018560ff161480610e25575060028560ff16145b1515610e3057600080fd5b600060086001600381101515610e4257fe5b0154118015610e625750600060086002600381101515610e5e57fe5b0154115b1515610e6a57fe5b84600b60006101000a81548160ff021916908360ff160217905550610ee8612710610eda610ea560045461271061117c90919063ffffffff16565b6008610ebe8a60ff16600361117c90919063ffffffff16565b600381101515610eca57fe5b015461119590919063ffffffff16565b6111cd90919063ffffffff16565b9350600092505b600260008660ff1660ff168152602001908152602001600020805490508310156110da57600260008660ff1660ff16815260200190815260200160002083815481101515610f3957fe5b9060005260206000200160009054906101000a900473ffffffffffffffffffffffffffffffffffffffff169150610ff660088660ff16600381101515610f7b57fe5b0154610fe8600c54600160008773ffffffffffffffffffffffffffffffffffffffff1673ffffffffffffffffffffffffffffffffffffffff16815260200190815260200160002060008a60ff1660ff1681526020019081526020016000205461119590919063ffffffff16565b6111cd90919063ffffffff16565b90508173ffffffffffffffffffffffffffffffffffffffff166108fc6110a161103c600c5461102e898761119590919063ffffffff16565b6111cd90919063ffffffff16565b600160008773ffffffffffffffffffffffffffffffffffffffff1673ffffffffffffffffffffffffffffffffffffffff16815260200190815260200160002060008a60ff1660ff1681526020019081526020016000205461116090919063ffffffff16565b9081150290604051600060405180830381858888f193505050501580156110cc573d6000803e3d6000fd5b508280600101935050610eef565b6000809054906101000a900473ffffffffffffffffffffffffffffffffffffffff1673ffffffffffffffffffffffffffffffffffffffff166108fc3073ffffffffffffffffffffffffffffffffffffffff16319081150290604051600060405180830381858888f19350505050158015611158573d6000803e3d6000fd5b505050505050565b6000818301905082811015151561117357fe5b80905092915050565b600082821115151561118a57fe5b818303905092915050565b6000808314156111a857600090506111c7565b81830290508183828115156111b957fe5b041415156111c357fe5b8090505b92915050565b600081838115156111da57fe5b049050929150505600a165627a7a7230582095ccbed0578f6173126799911dd2273d6bb824f1713264358d5df14433ae971d0029",
  "source": "pragma solidity ^ 0.4.24;\r\n\r\nimport \"./SafeMath.sol\";\r\nimport \"./Team.sol\";\r\n\r\ncontract Match is Restricted {\r\n\r\n    using SafeMath for uint256;\r\n\r\n    // No matchStatus = 0\r\n    // Team A = 1\r\n    // Team B = 2\r\n    mapping(address => mapping(uint8 => uint256)) public balances; //per player\r\n    mapping(uint8 => address[]) public teamBets;\r\n    mapping(address => uint8) teamLocalId;\r\n    // commision :)\r\n    uint256 commision;\r\n\r\n    address[3] public teamAddress;\r\n    uint256[3] public teamPools;\r\n    uint8 public matchStatus;\r\n   \r\n    uint256 public MAX_DECIMALS;\r\n    \r\n    event BetSet(address indexed _player, address _team, address _match);\r\n\r\n    // Initial state of the contract\r\n    constructor(address _team1, address _team2, uint256 _commision) public {\r\n        assert(_commision < 10000 && _commision >= 10);\r\n        // Validate client input commision * 100 | range(0.1% - 100%) | range(10 - 10000)\r\n        \r\n        owner = msg.sender;\r\n        teamLocalId[_team1] = 1;\r\n        teamLocalId[_team2] = 2;\r\n        teamAddress[1] = _team1;\r\n        teamAddress[2] = _team2;\r\n        matchStatus = 0;\r\n        commision = _commision;\r\n        MAX_DECIMALS = 10000000;\r\n    \r\n    }\r\n\r\n    function getMatch() public view returns(address _team1, address _team2, uint _poolTeam1, uint _poolTeam2, uint _winner, uint _commision) {\r\n        _team1 = teamAddress[1];\r\n        _team2 = teamAddress[2];\r\n        _poolTeam1 = teamPools[1];\r\n        _poolTeam2 = teamPools[2];\r\n        _winner = matchStatus;\r\n        _commision = commision;\r\n    }\r\n    \r\n    // Set the team id for betting\r\n    // Team A = 1\r\n    // Team B = 2\r\n    function setBet(address _team, address _sender) public payable {\r\n        //require(teamLocalId[_team] != 0);\r\n\r\n        uint8 _id = teamLocalId[_team];\r\n\r\n        if (balances[_sender][_id] == 0) {\r\n            teamBets[_id].push(_sender);\r\n        }\r\n        \r\n        balances[_sender][_id] = balances[_sender][_id].add(msg.value);\r\n        teamPools[_id] = teamPools[_id].add(msg.value);\r\n        \r\n        emit BetSet(_sender, _team, address(this));\r\n    }\r\n\r\n    function getWinner() public view returns(address) {\r\n        return teamAddress[matchStatus];\r\n    }\r\n    \r\n    function getTeamAddress(uint8 _id) public view returns(address) {\r\n        return teamAddress[_id];\r\n    }\r\n   \r\n    // Type 3: Draw\r\n    // Type 4: Cancel\r\n    function finishMatch(uint8 _type) public onlyOwner {\r\n        require(_type == 3 || _type == 4);\r\n        \r\n        for (uint8 i = 1; i < 3; i++){\r\n            for(uint j = 0; j < teamBets[i].length; j++) {\r\n                address person = teamBets[i][j];\r\n                person.transfer(balances[person][i]);\r\n            }\r\n        }\r\n        \r\n        if(_type == 3){\r\n            matchStatus = 3;// draw\r\n        }\r\n        else{\r\n            matchStatus = 4;// cancel\r\n        }\r\n    }\r\n    \r\n    // Winner 1: TeamA\r\n    // Winner 2: TeamB\r\n    function setWinner(uint8 _winner) public onlyOwner {\r\n        require(_winner == 1 || _winner == 2);\r\n        assert(teamPools[1] > 0 && teamPools[2] > 0);\r\n        \r\n        matchStatus = _winner;\r\n        \r\n        uint256 recalcLoserPool = teamPools[teamAddress.length.sub(_winner)].mul(uint(10000).sub(commision)).div(10000);\r\n        \r\n        // CAUTION: Funds will be frozen if the winner team's pool time 10000 causes overflow (when is bigger than 256uint)\r\n\r\n        // MAX DIFERENCE BETWEEN BETS 10000000 - 1\r\n        for (uint i = 0; i < teamBets[_winner].length; i++) {\r\n            address luckyPerson = teamBets[_winner][i];\r\n            uint percentage = balances[luckyPerson][_winner].mul(MAX_DECIMALS).div(teamPools[_winner]);\r\n            luckyPerson.transfer(balances[luckyPerson][_winner].add(percentage.mul(recalcLoserPool).div(MAX_DECIMALS)));\r\n        }\r\n\r\n        owner.transfer(address(this).balance);\r\n    }\r\n\r\n    function () public payable {\r\n        //require(false);\r\n    }\r\n}",
  "sourcePath": "C:\\Users\\Bogo\\Desktop\\truffle-practice\\compiler\\contracts\\Match.sol",
  "compiler": {
    "name": "solc",
    "version": "0.4.24+commit.e67f0147.Emscripten.clang"
  },
  "schemaVersion": "2.0.1",
  "updatedAt": "2018-09-01T15:14:12.369Z"
}